S01900004763634170706C69636174696F6E3136352E73726563EE
S11300000C942A000C943C000C943C000C943C008E
S11300100C943C000C943C000C943C000C943C006C
S11300200C943C000C943C000C943C000C943C005C
S11300300C943C000C9473000C943C000C943C0015
S11300400C943C000C943C000C943C000C943C003C
S11300500C943C0011241FBECFE5D8E0DEBFCDBF19
S113006020E0A0E6B0E001C01D92A836B207E1F797
S11300700E94F8000C9404010C94000090BD89B90E
S11300801BB88AB188618AB9579A86E880BD0895F9
S113009080916600882321F0C29A82E48CB9089585
S11300A0C29882E68CB9089580916300882319F080
S11300B0D89AC09A0895D898C098089580916300FA
S11300C0882359F080916600882339F081E0809379
S11300D06500C39A83E48CB9089510926500C398AF
S11300E083E68CB908951F920F920FB60F921124D4
S11300F02F933F934F935F936F937F938F939F932C
S1130100AF93BF93EF93FF938CB1809367008635D1
S113011041F128F4823451F08334B9F030C083368D
S1130120D1F0863731F1823651F508C081E08093F1
S113013066000E9448000E945E0021C01092660082
S11301400E9448000E945E001AC081E0809365000E
S11301508093640014C01092650081E08093640071
S11301600EC081E0809363000E9454000E945E00F0
S113017006C0109263000E9454000E945E00FF912A
S1130180EF91BF91AF919F918F917F916F915F910B
S11301904F913F912F910F900FBE0F901F90189584
S11301A0989B05C081E080936200809360009899D9
S11301B009C01092620010926000809161001816CC
S11301C079F408959091620080916100981779F014
S11301D080916000882321F086E58CB9C19A03C020
S11301E086E78CB9C198809162008093610008957C
S11301F08FEF8ABB87BB14BA83E390E00E943E0072
S10F020078940E94D000FDCFF894FFCF4A
S9030000FC
